{
  "_format": "hh-sol-artifact-1",
  "contractName": "BiblioMarketPlace",
  "sourceName": "contracts/BiblioMarketPlace.sol",
  "abi": [
    {
      "inputs": [],
      "stateMutability": "nonpayable",
      "type": "constructor"
    },
    {
      "anonymous": false,
      "inputs": [
        {
          "indexed": true,
          "internalType": "address",
          "name": "owner",
          "type": "address"
        },
        {
          "indexed": true,
          "internalType": "address",
          "name": "approved",
          "type": "address"
        },
        {
          "indexed": true,
          "internalType": "uint256",
          "name": "tokenId",
          "type": "uint256"
        }
      ],
      "name": "Approval",
      "type": "event"
    },
    {
      "anonymous": false,
      "inputs": [
        {
          "indexed": true,
          "internalType": "address",
          "name": "owner",
          "type": "address"
        },
        {
          "indexed": true,
          "internalType": "address",
          "name": "operator",
          "type": "address"
        },
        {
          "indexed": false,
          "internalType": "bool",
          "name": "approved",
          "type": "bool"
        }
      ],
      "name": "ApprovalForAll",
      "type": "event"
    },
    {
      "anonymous": false,
      "inputs": [
        {
          "indexed": true,
          "internalType": "address",
          "name": "previousOwner",
          "type": "address"
        },
        {
          "indexed": true,
          "internalType": "address",
          "name": "newOwner",
          "type": "address"
        }
      ],
      "name": "OwnershipTransferred",
      "type": "event"
    },
    {
      "anonymous": false,
      "inputs": [
        {
          "indexed": true,
          "internalType": "address",
          "name": "from",
          "type": "address"
        },
        {
          "indexed": true,
          "internalType": "address",
          "name": "to",
          "type": "address"
        },
        {
          "indexed": true,
          "internalType": "uint256",
          "name": "tokenId",
          "type": "uint256"
        }
      ],
      "name": "Transfer",
      "type": "event"
    },
    {
      "inputs": [
        {
          "internalType": "address",
          "name": "to",
          "type": "address"
        },
        {
          "internalType": "uint256",
          "name": "tokenId",
          "type": "uint256"
        }
      ],
      "name": "approve",
      "outputs": [],
      "stateMutability": "nonpayable",
      "type": "function"
    },
    {
      "inputs": [
        {
          "internalType": "address",
          "name": "owner",
          "type": "address"
        }
      ],
      "name": "balanceOf",
      "outputs": [
        {
          "internalType": "uint256",
          "name": "",
          "type": "uint256"
        }
      ],
      "stateMutability": "view",
      "type": "function"
    },
    {
      "inputs": [
        {
          "internalType": "uint256",
          "name": "tokenId",
          "type": "uint256"
        }
      ],
      "name": "buy",
      "outputs": [],
      "stateMutability": "payable",
      "type": "function"
    },
    {
      "inputs": [],
      "name": "fetchItemsListed",
      "outputs": [
        {
          "components": [
            {
              "internalType": "uint256",
              "name": "tokenId",
              "type": "uint256"
            },
            {
              "internalType": "uint256",
              "name": "price",
              "type": "uint256"
            },
            {
              "internalType": "bool",
              "name": "isListed",
              "type": "bool"
            },
            {
              "internalType": "address payable",
              "name": "seller",
              "type": "address"
            },
            {
              "internalType": "address payable",
              "name": "owner",
              "type": "address"
            }
          ],
          "internalType": "struct BiblioMarketPlace.BiblioNFTItem[]",
          "name": "",
          "type": "tuple[]"
        }
      ],
      "stateMutability": "view",
      "type": "function"
    },
    {
      "inputs": [],
      "name": "fetchMarketItems",
      "outputs": [
        {
          "components": [
            {
              "internalType": "uint256",
              "name": "tokenId",
              "type": "uint256"
            },
            {
              "internalType": "uint256",
              "name": "price",
              "type": "uint256"
            },
            {
              "internalType": "bool",
              "name": "isListed",
              "type": "bool"
            },
            {
              "internalType": "address payable",
              "name": "seller",
              "type": "address"
            },
            {
              "internalType": "address payable",
              "name": "owner",
              "type": "address"
            }
          ],
          "internalType": "struct BiblioMarketPlace.BiblioNFTItem[]",
          "name": "",
          "type": "tuple[]"
        }
      ],
      "stateMutability": "view",
      "type": "function"
    },
    {
      "inputs": [],
      "name": "fetchMyNFTs",
      "outputs": [
        {
          "components": [
            {
              "internalType": "uint256",
              "name": "tokenId",
              "type": "uint256"
            },
            {
              "internalType": "uint256",
              "name": "price",
              "type": "uint256"
            },
            {
              "internalType": "bool",
              "name": "isListed",
              "type": "bool"
            },
            {
              "internalType": "address payable",
              "name": "seller",
              "type": "address"
            },
            {
              "internalType": "address payable",
              "name": "owner",
              "type": "address"
            }
          ],
          "internalType": "struct BiblioMarketPlace.BiblioNFTItem[]",
          "name": "",
          "type": "tuple[]"
        }
      ],
      "stateMutability": "view",
      "type": "function"
    },
    {
      "inputs": [
        {
          "internalType": "uint256",
          "name": "tokenId",
          "type": "uint256"
        }
      ],
      "name": "getApproved",
      "outputs": [
        {
          "internalType": "address",
          "name": "",
          "type": "address"
        }
      ],
      "stateMutability": "view",
      "type": "function"
    },
    {
      "inputs": [],
      "name": "getListingFee",
      "outputs": [
        {
          "internalType": "uint256",
          "name": "lfee",
          "type": "uint256"
        }
      ],
      "stateMutability": "view",
      "type": "function"
    },
    {
      "inputs": [
        {
          "internalType": "address",
          "name": "owner",
          "type": "address"
        },
        {
          "internalType": "address",
          "name": "operator",
          "type": "address"
        }
      ],
      "name": "isApprovedForAll",
      "outputs": [
        {
          "internalType": "bool",
          "name": "",
          "type": "bool"
        }
      ],
      "stateMutability": "view",
      "type": "function"
    },
    {
      "inputs": [],
      "name": "listingFee",
      "outputs": [
        {
          "internalType": "uint256",
          "name": "",
          "type": "uint256"
        }
      ],
      "stateMutability": "view",
      "type": "function"
    },
    {
      "inputs": [
        {
          "internalType": "uint256",
          "name": "",
          "type": "uint256"
        }
      ],
      "name": "listings",
      "outputs": [
        {
          "internalType": "uint256",
          "name": "tokenId",
          "type": "uint256"
        },
        {
          "internalType": "uint256",
          "name": "price",
          "type": "uint256"
        },
        {
          "internalType": "bool",
          "name": "isListed",
          "type": "bool"
        },
        {
          "internalType": "address payable",
          "name": "seller",
          "type": "address"
        },
        {
          "internalType": "address payable",
          "name": "owner",
          "type": "address"
        }
      ],
      "stateMutability": "view",
      "type": "function"
    },
    {
      "inputs": [
        {
          "internalType": "string",
          "name": "uri",
          "type": "string"
        },
        {
          "internalType": "uint256",
          "name": "price",
          "type": "uint256"
        }
      ],
      "name": "mintAndListBiblioToken",
      "outputs": [
        {
          "internalType": "uint256",
          "name": "",
          "type": "uint256"
        }
      ],
      "stateMutability": "payable",
      "type": "function"
    },
    {
      "inputs": [],
      "name": "name",
      "outputs": [
        {
          "internalType": "string",
          "name": "",
          "type": "string"
        }
      ],
      "stateMutability": "view",
      "type": "function"
    },
    {
      "inputs": [],
      "name": "owner",
      "outputs": [
        {
          "internalType": "address",
          "name": "",
          "type": "address"
        }
      ],
      "stateMutability": "view",
      "type": "function"
    },
    {
      "inputs": [
        {
          "internalType": "uint256",
          "name": "tokenId",
          "type": "uint256"
        }
      ],
      "name": "ownerOf",
      "outputs": [
        {
          "internalType": "address",
          "name": "",
          "type": "address"
        }
      ],
      "stateMutability": "view",
      "type": "function"
    },
    {
      "inputs": [
        {
          "internalType": "uint256",
          "name": "tokenId",
          "type": "uint256"
        },
        {
          "internalType": "uint256",
          "name": "price",
          "type": "uint256"
        }
      ],
      "name": "reListNFT",
      "outputs": [],
      "stateMutability": "payable",
      "type": "function"
    },
    {
      "inputs": [],
      "name": "renounceOwnership",
      "outputs": [],
      "stateMutability": "nonpayable",
      "type": "function"
    },
    {
      "inputs": [
        {
          "internalType": "address",
          "name": "from",
          "type": "address"
        },
        {
          "internalType": "address",
          "name": "to",
          "type": "address"
        },
        {
          "internalType": "uint256",
          "name": "tokenId",
          "type": "uint256"
        }
      ],
      "name": "safeTransferFrom",
      "outputs": [],
      "stateMutability": "nonpayable",
      "type": "function"
    },
    {
      "inputs": [
        {
          "internalType": "address",
          "name": "from",
          "type": "address"
        },
        {
          "internalType": "address",
          "name": "to",
          "type": "address"
        },
        {
          "internalType": "uint256",
          "name": "tokenId",
          "type": "uint256"
        },
        {
          "internalType": "bytes",
          "name": "_data",
          "type": "bytes"
        }
      ],
      "name": "safeTransferFrom",
      "outputs": [],
      "stateMutability": "nonpayable",
      "type": "function"
    },
    {
      "inputs": [
        {
          "internalType": "address",
          "name": "operator",
          "type": "address"
        },
        {
          "internalType": "bool",
          "name": "approved",
          "type": "bool"
        }
      ],
      "name": "setApprovalForAll",
      "outputs": [],
      "stateMutability": "nonpayable",
      "type": "function"
    },
    {
      "inputs": [
        {
          "internalType": "bytes4",
          "name": "interfaceId",
          "type": "bytes4"
        }
      ],
      "name": "supportsInterface",
      "outputs": [
        {
          "internalType": "bool",
          "name": "",
          "type": "bool"
        }
      ],
      "stateMutability": "view",
      "type": "function"
    },
    {
      "inputs": [],
      "name": "symbol",
      "outputs": [
        {
          "internalType": "string",
          "name": "",
          "type": "string"
        }
      ],
      "stateMutability": "view",
      "type": "function"
    },
    {
      "inputs": [
        {
          "internalType": "uint256",
          "name": "index",
          "type": "uint256"
        }
      ],
      "name": "tokenByIndex",
      "outputs": [
        {
          "internalType": "uint256",
          "name": "",
          "type": "uint256"
        }
      ],
      "stateMutability": "view",
      "type": "function"
    },
    {
      "inputs": [
        {
          "internalType": "address",
          "name": "owner",
          "type": "address"
        },
        {
          "internalType": "uint256",
          "name": "index",
          "type": "uint256"
        }
      ],
      "name": "tokenOfOwnerByIndex",
      "outputs": [
        {
          "internalType": "uint256",
          "name": "",
          "type": "uint256"
        }
      ],
      "stateMutability": "view",
      "type": "function"
    },
    {
      "inputs": [
        {
          "internalType": "uint256",
          "name": "tokenId",
          "type": "uint256"
        }
      ],
      "name": "tokenURI",
      "outputs": [
        {
          "internalType": "string",
          "name": "",
          "type": "string"
        }
      ],
      "stateMutability": "view",
      "type": "function"
    },
    {
      "inputs": [],
      "name": "totalSupply",
      "outputs": [
        {
          "internalType": "uint256",
          "name": "",
          "type": "uint256"
        }
      ],
      "stateMutability": "view",
      "type": "function"
    },
    {
      "inputs": [
        {
          "internalType": "address",
          "name": "from",
          "type": "address"
        },
        {
          "internalType": "address",
          "name": "to",
          "type": "address"
        },
        {
          "internalType": "uint256",
          "name": "tokenId",
          "type": "uint256"
        }
      ],
      "name": "transferFrom",
      "outputs": [],
      "stateMutability": "nonpayable",
      "type": "function"
    },
    {
      "inputs": [
        {
          "internalType": "address",
          "name": "newOwner",
          "type": "address"
        }
      ],
      "name": "transferOwnership",
      "outputs": [],
      "stateMutability": "nonpayable",
      "type": "function"
    },
    {
      "inputs": [
        {
          "internalType": "uint256",
          "name": "newListingFee",
          "type": "uint256"
        }
      ],
      "name": "updateListingFee",
      "outputs": [],
      "stateMutability": "nonpayable",
      "type": "function"
    }
  ],
  "bytecode": "0x60806040526706f05b59d3b20000600d5573874069fa1eb16d44d622f2e0ca25eea172369bc1601060006101000a81548173ffffffffffffffffffffffffffffffffffffffff021916908373ffffffffffffffffffffffffffffffffffffffff1602179055503480156200007257600080fd5b506040518060400160405280600981526020017f4269626c696f4e465400000000000000000000000000000000000000000000008152506040518060400160405280600581526020017f42424e46540000000000000000000000000000000000000000000000000000008152508160009080519060200190620000f792919062000207565b5080600190805190602001906200011092919062000207565b50505062000133620001276200013960201b60201c565b6200014160201b60201c565b6200031c565b600033905090565b6000600b60009054906101000a900473ffffffffffffffffffffffffffffffffffffffff16905081600b60006101000a81548173ffffffffffffffffffffffffffffffffffffffff021916908373ffffffffffffffffffffffffffffffffffffffff1602179055508173ffffffffffffffffffffffffffffffffffffffff168173ffffffffffffffffffffffffffffffffffffffff167f8be0079c531659141344cd1fd0a4f28419497f9722a3daafe3b4186f6b6457e060405160405180910390a35050565b8280546200021590620002b7565b90600052602060002090601f01602090048101928262000239576000855562000285565b82601f106200025457805160ff191683800117855562000285565b8280016001018555821562000285579182015b828111156200028457825182559160200191906001019062000267565b5b50905062000294919062000298565b5090565b5b80821115620002b357600081600090555060010162000299565b5090565b60006002820490506001821680620002d057607f821691505b60208210811415620002e757620002e6620002ed565b5b50919050565b7f4e487b7100000000000000000000000000000000000000000000000000000000600052602260045260246000fd5b615521806200032c6000396000f3fe6080604052600436106101c25760003560e01c80636a1b7ecc116100f7578063b8fe6abe11610095578063e985e9c511610064578063e985e9c514610652578063f2fde38b1461068f578063f79d91ae146106b8578063ffdc7b9e146106e1576101c2565b8063b8fe6abe1461058d578063c87b56dd146105b8578063d96a094a146105f5578063de74e57b14610611576101c2565b80638da5cb5b116100d15780638da5cb5b146104e557806395d89b4114610510578063a22cb4651461053b578063b88d4fde14610564576101c2565b80636a1b7ecc1461046657806370a0823114610491578063715018a6146104ce576101c2565b806323b872dd1161016457806345f8fa801161013e57806345f8fa80146103a55780634f6ccce7146103d05780635f6f608e1461040d5780636352211e14610429576101c2565b806323b872dd146103165780632f745c591461033f57806342842e0e1461037c576101c2565b8063095ea7b3116101a0578063095ea7b31461026c5780630f08efe01461029557806318160ddd146102c0578063202e3740146102eb576101c2565b806301ffc9a7146101c757806306fdde0314610204578063081812fc1461022f575b600080fd5b3480156101d357600080fd5b506101ee60048036038101906101e99190613da2565b610711565b6040516101fb9190614555565b60405180910390f35b34801561021057600080fd5b50610219610723565b6040516102269190614570565b60405180910390f35b34801561023b57600080fd5b5061025660048036038101906102519190613e48565b6107b5565b604051610263919061446c565b60405180910390f35b34801561027857600080fd5b50610293600480360381019061028e9190613d3d565b61083a565b005b3480156102a157600080fd5b506102aa610952565b6040516102b79190614533565b60405180910390f35b3480156102cc57600080fd5b506102d5610c06565b6040516102e291906148f2565b60405180910390f35b3480156102f757600080fd5b50610300610c13565b60405161030d9190614533565b60405180910390f35b34801561032257600080fd5b5061033d60048036038101906103389190613c37565b610f4c565b005b34801561034b57600080fd5b5061036660048036038101906103619190613d3d565b610fac565b60405161037391906148f2565b60405180910390f35b34801561038857600080fd5b506103a3600480360381019061039e9190613c37565b611051565b005b3480156103b157600080fd5b506103ba611071565b6040516103c79190614533565b60405180910390f35b3480156103dc57600080fd5b506103f760048036038101906103f29190613e48565b6113aa565b60405161040491906148f2565b60405180910390f35b61042760048036038101906104229190613e71565b611441565b005b34801561043557600080fd5b50610450600480360381019061044b9190613e48565b61172d565b60405161045d919061446c565b60405180910390f35b34801561047257600080fd5b5061047b6117df565b60405161048891906148f2565b60405180910390f35b34801561049d57600080fd5b506104b860048036038101906104b39190613bd2565b6117e5565b6040516104c591906148f2565b60405180910390f35b3480156104da57600080fd5b506104e361189d565b005b3480156104f157600080fd5b506104fa611925565b604051610507919061446c565b60405180910390f35b34801561051c57600080fd5b5061052561194f565b6040516105329190614570565b60405180910390f35b34801561054757600080fd5b50610562600480360381019061055d9190613d01565b6119e1565b005b34801561057057600080fd5b5061058b60048036038101906105869190613c86565b6119f7565b005b34801561059957600080fd5b506105a2611a59565b6040516105af91906148f2565b60405180910390f35b3480156105c457600080fd5b506105df60048036038101906105da9190613e48565b611a63565b6040516105ec9190614570565b60405180910390f35b61060f600480360381019061060a9190613e48565b611a75565b005b34801561061d57600080fd5b5061063860048036038101906106339190613e48565b611e10565b60405161064995949392919061490d565b60405180910390f35b34801561065e57600080fd5b5061067960048036038101906106749190613bfb565b611e93565b6040516106869190614555565b60405180910390f35b34801561069b57600080fd5b506106b660048036038101906106b19190613bd2565b611f27565b005b3480156106c457600080fd5b506106df60048036038101906106da9190613e48565b61201f565b005b6106fb60048036038101906106f69190613df4565b6120a5565b60405161070891906148f2565b60405180910390f35b600061071c826120e7565b9050919050565b60606000805461073290614be6565b80601f016020809104026020016040519081016040528092919081815260200182805461075e90614be6565b80156107ab5780601f10610780576101008083540402835291602001916107ab565b820191906000526020600020905b81548152906001019060200180831161078e57829003601f168201915b5050505050905090565b60006107c082612161565b6107ff576040517f08c379a00000000000000000000000000000000000000000000000000000000081526004016107f6906147b2565b60405180910390fd5b6004600083815260200190815260200160002060009054906101000a900473ffffffffffffffffffffffffffffffffffffffff169050919050565b60006108458261172d565b90508073ffffffffffffffffffffffffffffffffffffffff168373ffffffffffffffffffffffffffffffffffffffff1614156108b6576040517f08c379a00000000000000000000000000000000000000000000000000000000081526004016108ad90614832565b60405180910390fd5b8073ffffffffffffffffffffffffffffffffffffffff166108d56121cd565b73ffffffffffffffffffffffffffffffffffffffff1614806109045750610903816108fe6121cd565b611e93565b5b610943576040517f08c379a000000000000000000000000000000000000000000000000000000000815260040161093a906146d2565b60405180910390fd5b61094d83836121d5565b505050565b60606000610960600e61228e565b9050600061096e600f61228e565b610978600e61228e565b6109829190614aea565b90506000808267ffffffffffffffff8111156109c7577f4e487b7100000000000000000000000000000000000000000000000000000000600052604160045260246000fd5b604051908082528060200260200182016040528015610a0057816020015b6109ed613984565b8152602001906001900390816109e55790505b50905060005b84811015610bfb573073ffffffffffffffffffffffffffffffffffffffff16600c6000600184610a369190614a63565b815260200190815260200160002060030160009054906101000a900473ffffffffffffffffffffffffffffffffffffffff1673ffffffffffffffffffffffffffffffffffffffff161415610be8576000600182610a939190614a63565b90506000600c60008381526020019081526020016000209050806040518060a001604052908160008201548152602001600182015481526020016002820160009054906101000a900460ff161515151581526020016002820160019054906101000a900473ffffffffffffffffffffffffffffffffffffffff1673ffffffffffffffffffffffffffffffffffffffff1673ffffffffffffffffffffffffffffffffffffffff1681526020016003820160009054906101000a900473ffffffffffffffffffffffffffffffffffffffff1673ffffffffffffffffffffffffffffffffffffffff1673ffffffffffffffffffffffffffffffffffffffff1681525050848681518110610bcc577f4e487b7100000000000000000000000000000000000000000000000000000000600052603260045260246000fd5b60200260200101819052508480610be290614c49565b95505050505b8080610bf390614c49565b915050610a06565b508094505050505090565b6000600880549050905090565b60606000610c21600e61228e565b905060008060005b83811015610cca573373ffffffffffffffffffffffffffffffffffffffff16600c6000600184610c599190614a63565b815260200190815260200160002060030160009054906101000a900473ffffffffffffffffffffffffffffffffffffffff1673ffffffffffffffffffffffffffffffffffffffff161415610cb757600183610cb49190614a63565b92505b8080610cc290614c49565b915050610c29565b5060008267ffffffffffffffff811115610d0d577f4e487b7100000000000000000000000000000000000000000000000000000000600052604160045260246000fd5b604051908082528060200260200182016040528015610d4657816020015b610d33613984565b815260200190600190039081610d2b5790505b50905060005b84811015610f41573373ffffffffffffffffffffffffffffffffffffffff16600c6000600184610d7c9190614a63565b815260200190815260200160002060030160009054906101000a900473ffffffffffffffffffffffffffffffffffffffff1673ffffffffffffffffffffffffffffffffffffffff161415610f2e576000600182610dd99190614a63565b90506000600c60008381526020019081526020016000209050806040518060a001604052908160008201548152602001600182015481526020016002820160009054906101000a900460ff161515151581526020016002820160019054906101000a900473ffffffffffffffffffffffffffffffffffffffff1673ffffffffffffffffffffffffffffffffffffffff1673ffffffffffffffffffffffffffffffffffffffff1681526020016003820160009054906101000a900473ffffffffffffffffffffffffffffffffffffffff1673ffffffffffffffffffffffffffffffffffffffff1673ffffffffffffffffffffffffffffffffffffffff1681525050848681518110610f12577f4e487b7100000000000000000000000000000000000000000000000000000000600052603260045260246000fd5b60200260200101819052508480610f2890614c49565b95505050505b8080610f3990614c49565b915050610d4c565b508094505050505090565b610f5d610f576121cd565b8261229c565b610f9c576040517f08c379a0000000000000000000000000000000000000000000000000000000008152600401610f9390614872565b60405180910390fd5b610fa783838361237a565b505050565b6000610fb7836117e5565b8210610ff8576040517f08c379a0000000000000000000000000000000000000000000000000000000008152600401610fef906145b2565b60405180910390fd5b600660008473ffffffffffffffffffffffffffffffffffffffff1673ffffffffffffffffffffffffffffffffffffffff168152602001908152602001600020600083815260200190815260200160002054905092915050565b61106c838383604051806020016040528060008152506119f7565b505050565b6060600061107f600e61228e565b905060008060005b83811015611128573373ffffffffffffffffffffffffffffffffffffffff16600c60006001846110b79190614a63565b815260200190815260200160002060020160019054906101000a900473ffffffffffffffffffffffffffffffffffffffff1673ffffffffffffffffffffffffffffffffffffffff161415611115576001836111129190614a63565b92505b808061112090614c49565b915050611087565b5060008267ffffffffffffffff81111561116b577f4e487b7100000000000000000000000000000000000000000000000000000000600052604160045260246000fd5b6040519080825280602002602001820160405280156111a457816020015b611191613984565b8152602001906001900390816111895790505b50905060005b8481101561139f573373ffffffffffffffffffffffffffffffffffffffff16600c60006001846111da9190614a63565b815260200190815260200160002060020160019054906101000a900473ffffffffffffffffffffffffffffffffffffffff1673ffffffffffffffffffffffffffffffffffffffff16141561138c5760006001826112379190614a63565b90506000600c60008381526020019081526020016000209050806040518060a001604052908160008201548152602001600182015481526020016002820160009054906101000a900460ff161515151581526020016002820160019054906101000a900473ffffffffffffffffffffffffffffffffffffffff1673ffffffffffffffffffffffffffffffffffffffff1673ffffffffffffffffffffffffffffffffffffffff1681526020016003820160009054906101000a900473ffffffffffffffffffffffffffffffffffffffff1673ffffffffffffffffffffffffffffffffffffffff1673ffffffffffffffffffffffffffffffffffffffff1681525050848381518110611370577f4e487b7100000000000000000000000000000000000000000000000000000000600052603260045260246000fd5b6020026020010181905250848061138690614c49565b95505050505b808061139790614c49565b9150506111aa565b508094505050505090565b60006113b4610c06565b82106113f5576040517f08c379a00000000000000000000000000000000000000000000000000000000081526004016113ec90614892565b60405180910390fd5b6008828154811061142f577f4e487b7100000000000000000000000000000000000000000000000000000000600052603260045260246000fd5b90600052602060002001549050919050565b6000339050600c600084815260200190815260200160002060030160009054906101000a900473ffffffffffffffffffffffffffffffffffffffff1673ffffffffffffffffffffffffffffffffffffffff168173ffffffffffffffffffffffffffffffffffffffff16146114ea576040517f08c379a00000000000000000000000000000000000000000000000000000000081526004016114e1906148b2565b60405180910390fd5b6000821161152d576040517f08c379a0000000000000000000000000000000000000000000000000000000008152600401611524906148d2565b60405180910390fd5b601060009054906101000a900473ffffffffffffffffffffffffffffffffffffffff1673ffffffffffffffffffffffffffffffffffffffff166323b872dd3330600d546040518463ffffffff1660e01b815260040161158e93929190614487565b602060405180830381600087803b1580156115a857600080fd5b505af11580156115bc573d6000803e3d6000fd5b505050506040513d601f19601f820116820180604052508101906115e09190613d79565b61161f576040517f08c379a000000000000000000000000000000000000000000000000000000000815260040161161690614592565b60405180910390fd5b6001600c600085815260200190815260200160002060020160006101000a81548160ff02191690831515021790555081600c60008581526020019081526020016000206001018190555030600c600085815260200190815260200160002060030160006101000a81548173ffffffffffffffffffffffffffffffffffffffff021916908373ffffffffffffffffffffffffffffffffffffffff16021790555033600c600085815260200190815260200160002060020160016101000a81548173ffffffffffffffffffffffffffffffffffffffff021916908373ffffffffffffffffffffffffffffffffffffffff16021790555061171d600f6125e1565b61172833308561237a565b505050565b6000806002600084815260200190815260200160002060009054906101000a900473ffffffffffffffffffffffffffffffffffffffff169050600073ffffffffffffffffffffffffffffffffffffffff168173ffffffffffffffffffffffffffffffffffffffff1614156117d6576040517f08c379a00000000000000000000000000000000000000000000000000000000081526004016117cd90614712565b60405180910390fd5b80915050919050565b600d5481565b60008073ffffffffffffffffffffffffffffffffffffffff168273ffffffffffffffffffffffffffffffffffffffff161415611856576040517f08c379a000000000000000000000000000000000000000000000000000000000815260040161184d906146f2565b60405180910390fd5b600360008373ffffffffffffffffffffffffffffffffffffffff1673ffffffffffffffffffffffffffffffffffffffff168152602001908152602001600020549050919050565b6118a56121cd565b73ffffffffffffffffffffffffffffffffffffffff166118c3611925565b73ffffffffffffffffffffffffffffffffffffffff1614611919576040517f08c379a0000000000000000000000000000000000000000000000000000000008152600401611910906147d2565b60405180910390fd5b611923600061263d565b565b6000600b60009054906101000a900473ffffffffffffffffffffffffffffffffffffffff16905090565b60606001805461195e90614be6565b80601f016020809104026020016040519081016040528092919081815260200182805461198a90614be6565b80156119d75780601f106119ac576101008083540402835291602001916119d7565b820191906000526020600020905b8154815290600101906020018083116119ba57829003601f168201915b5050505050905090565b6119f36119ec6121cd565b8383612703565b5050565b611a08611a026121cd565b8361229c565b611a47576040517f08c379a0000000000000000000000000000000000000000000000000000000008152600401611a3e90614872565b60405180910390fd5b611a5384848484612870565b50505050565b6000600d54905090565b6060611a6e826128cc565b9050919050565b6000600c60008381526020019081526020016000206001015490506000600c600084815260200190815260200160002060020160019054906101000a900473ffffffffffffffffffffffffffffffffffffffff16905060011515600c600085815260200190815260200160002060020160009054906101000a900460ff16151514611b35576040517f08c379a0000000000000000000000000000000000000000000000000000000008152600401611b2c90614812565b60405180910390fd5b601060009054906101000a900473ffffffffffffffffffffffffffffffffffffffff1673ffffffffffffffffffffffffffffffffffffffff166323b872dd3383856040518463ffffffff1660e01b8152600401611b9493929190614487565b602060405180830381600087803b158015611bae57600080fd5b505af1158015611bc2573d6000803e3d6000fd5b505050506040513d601f19601f82011682018060405250810190611be69190613d79565b611c25576040517f08c379a0000000000000000000000000000000000000000000000000000000008152600401611c1c90614852565b60405180910390fd5b33600c600085815260200190815260200160002060030160006101000a81548173ffffffffffffffffffffffffffffffffffffffff021916908373ffffffffffffffffffffffffffffffffffffffff1602179055506000600c600085815260200190815260200160002060020160006101000a81548160ff0219169083151502179055506000600c600085815260200190815260200160002060020160016101000a81548173ffffffffffffffffffffffffffffffffffffffff021916908373ffffffffffffffffffffffffffffffffffffffff160217905550611d09600f612a1e565b611d1430338561237a565b601060009054906101000a900473ffffffffffffffffffffffffffffffffffffffff1673ffffffffffffffffffffffffffffffffffffffff1663a9059cbb611d5a611925565b600d546040518363ffffffff1660e01b8152600401611d7a92919061450a565b602060405180830381600087803b158015611d9457600080fd5b505af1158015611da8573d6000803e3d6000fd5b505050506040513d601f19601f82011682018060405250810190611dcc9190613d79565b611e0b576040517f08c379a0000000000000000000000000000000000000000000000000000000008152600401611e0290614752565b60405180910390fd5b505050565b600c6020528060005260406000206000915090508060000154908060010154908060020160009054906101000a900460ff16908060020160019054906101000a900473ffffffffffffffffffffffffffffffffffffffff16908060030160009054906101000a900473ffffffffffffffffffffffffffffffffffffffff16905085565b6000600560008473ffffffffffffffffffffffffffffffffffffffff1673ffffffffffffffffffffffffffffffffffffffff16815260200190815260200160002060008373ffffffffffffffffffffffffffffffffffffffff1673ffffffffffffffffffffffffffffffffffffffff16815260200190815260200160002060009054906101000a900460ff16905092915050565b611f2f6121cd565b73ffffffffffffffffffffffffffffffffffffffff16611f4d611925565b73ffffffffffffffffffffffffffffffffffffffff1614611fa3576040517f08c379a0000000000000000000000000000000000000000000000000000000008152600401611f9a906147d2565b60405180910390fd5b600073ffffffffffffffffffffffffffffffffffffffff168173ffffffffffffffffffffffffffffffffffffffff161415612013576040517f08c379a000000000000000000000000000000000000000000000000000000000815260040161200a90614612565b60405180910390fd5b61201c8161263d565b50565b6120276121cd565b73ffffffffffffffffffffffffffffffffffffffff16612045611925565b73ffffffffffffffffffffffffffffffffffffffff161461209b576040517f08c379a0000000000000000000000000000000000000000000000000000000008152600401612092906147d2565b60405180910390fd5b80600d8190555050565b60006120b1600e612a1e565b60006120bd600e61228e565b90506120c93382612a34565b6120d38185612a52565b6120dd8184612ac6565b8091505092915050565b60007f780e9d63000000000000000000000000000000000000000000000000000000007bffffffffffffffffffffffffffffffffffffffffffffffffffffffff1916827bffffffffffffffffffffffffffffffffffffffffffffffffffffffff1916148061215a575061215982612d38565b5b9050919050565b60008073ffffffffffffffffffffffffffffffffffffffff166002600084815260200190815260200160002060009054906101000a900473ffffffffffffffffffffffffffffffffffffffff1673ffffffffffffffffffffffffffffffffffffffff1614159050919050565b600033905090565b816004600083815260200190815260200160002060006101000a81548173ffffffffffffffffffffffffffffffffffffffff021916908373ffffffffffffffffffffffffffffffffffffffff160217905550808273ffffffffffffffffffffffffffffffffffffffff166122488361172d565b73ffffffffffffffffffffffffffffffffffffffff167f8c5be1e5ebec7d5bd14f71427d1e84f3dd0314c0f7b2291e5b200ac8c7c3b92560405160405180910390a45050565b600081600001549050919050565b60006122a782612161565b6122e6576040517f08c379a00000000000000000000000000000000000000000000000000000000081526004016122dd906146b2565b60405180910390fd5b60006122f18361172d565b90508073ffffffffffffffffffffffffffffffffffffffff168473ffffffffffffffffffffffffffffffffffffffff16148061233357506123328185611e93565b5b8061237157508373ffffffffffffffffffffffffffffffffffffffff16612359846107b5565b73ffffffffffffffffffffffffffffffffffffffff16145b91505092915050565b8273ffffffffffffffffffffffffffffffffffffffff1661239a8261172d565b73ffffffffffffffffffffffffffffffffffffffff16146123f0576040517f08c379a00000000000000000000000000000000000000000000000000000000081526004016123e790614632565b60405180910390fd5b600073ffffffffffffffffffffffffffffffffffffffff168273ffffffffffffffffffffffffffffffffffffffff161415612460576040517f08c379a000000000000000000000000000000000000000000000000000000000815260040161245790614672565b60405180910390fd5b61246b838383612e1a565b6124766000826121d5565b6001600360008573ffffffffffffffffffffffffffffffffffffffff1673ffffffffffffffffffffffffffffffffffffffff16815260200190815260200160002060008282546124c69190614aea565b925050819055506001600360008473ffffffffffffffffffffffffffffffffffffffff1673ffffffffffffffffffffffffffffffffffffffff168152602001908152602001600020600082825461251d9190614a63565b92505081905550816002600083815260200190815260200160002060006101000a81548173ffffffffffffffffffffffffffffffffffffffff021916908373ffffffffffffffffffffffffffffffffffffffff160217905550808273ffffffffffffffffffffffffffffffffffffffff168473ffffffffffffffffffffffffffffffffffffffff167fddf252ad1be2c89b69c2b068fc378daa952ba7f163c4a11628f55a4df523b3ef60405160405180910390a46125dc838383612e2a565b505050565b6000816000015490506000811161262d576040517f08c379a0000000000000000000000000000000000000000000000000000000008152600401612624906145d2565b60405180910390fd5b6001810382600001819055505050565b6000600b60009054906101000a900473ffffffffffffffffffffffffffffffffffffffff16905081600b60006101000a81548173ffffffffffffffffffffffffffffffffffffffff021916908373ffffffffffffffffffffffffffffffffffffffff1602179055508173ffffffffffffffffffffffffffffffffffffffff168173ffffffffffffffffffffffffffffffffffffffff167f8be0079c531659141344cd1fd0a4f28419497f9722a3daafe3b4186f6b6457e060405160405180910390a35050565b8173ffffffffffffffffffffffffffffffffffffffff168373ffffffffffffffffffffffffffffffffffffffff161415612772576040517f08c379a000000000000000000000000000000000000000000000000000000000815260040161276990614692565b60405180910390fd5b80600560008573ffffffffffffffffffffffffffffffffffffffff1673ffffffffffffffffffffffffffffffffffffffff16815260200190815260200160002060008473ffffffffffffffffffffffffffffffffffffffff1673ffffffffffffffffffffffffffffffffffffffff16815260200190815260200160002060006101000a81548160ff0219169083151502179055508173ffffffffffffffffffffffffffffffffffffffff168373ffffffffffffffffffffffffffffffffffffffff167f17307eab39ab6107e8899845ad3d59bd9653f200f220920489ca2b5937696c31836040516128639190614555565b60405180910390a3505050565b61287b84848461237a565b61288784848484612e2f565b6128c6576040517f08c379a00000000000000000000000000000000000000000000000000000000081526004016128bd906145f2565b60405180910390fd5b50505050565b60606128d782612161565b612916576040517f08c379a000000000000000000000000000000000000000000000000000000000815260040161290d90614792565b60405180910390fd5b6000600a6000848152602001908152602001600020805461293690614be6565b80601f016020809104026020016040519081016040528092919081815260200182805461296290614be6565b80156129af5780601f10612984576101008083540402835291602001916129af565b820191906000526020600020905b81548152906001019060200180831161299257829003601f168201915b5050505050905060006129c0612fc6565b90506000815114156129d6578192505050612a19565b600082511115612a0b5780826040516020016129f3929190614448565b60405160208183030381529060405292505050612a19565b612a1484612fdd565b925050505b919050565b6001816000016000828254019250508190555050565b612a4e828260405180602001604052806000815250613084565b5050565b612a5b82612161565b612a9a576040517f08c379a0000000000000000000000000000000000000000000000000000000008152600401612a9190614732565b60405180910390fd5b80600a60008481526020019081526020016000209080519060200190612ac19291906139e1565b505050565b60008111612b09576040517f08c379a0000000000000000000000000000000000000000000000000000000008152600401612b00906148d2565b60405180910390fd5b601060009054906101000a900473ffffffffffffffffffffffffffffffffffffffff1673ffffffffffffffffffffffffffffffffffffffff166323b872dd3330600d546040518463ffffffff1660e01b8152600401612b6a93929190614487565b602060405180830381600087803b158015612b8457600080fd5b505af1158015612b98573d6000803e3d6000fd5b505050506040513d601f19601f82011682018060405250810190612bbc9190613d79565b612bfb576040517f08c379a0000000000000000000000000000000000000000000000000000000008152600401612bf290614592565b60405180910390fd5b6040518060a001604052808381526020018281526020016001151581526020013373ffffffffffffffffffffffffffffffffffffffff1681526020013073ffffffffffffffffffffffffffffffffffffffff16815250600c6000848152602001908152602001600020600082015181600001556020820151816001015560408201518160020160006101000a81548160ff02191690831515021790555060608201518160020160016101000a81548173ffffffffffffffffffffffffffffffffffffffff021916908373ffffffffffffffffffffffffffffffffffffffff16021790555060808201518160030160006101000a81548173ffffffffffffffffffffffffffffffffffffffff021916908373ffffffffffffffffffffffffffffffffffffffff160217905550905050612d3433308461237a565b5050565b60007f80ac58cd000000000000000000000000000000000000000000000000000000007bffffffffffffffffffffffffffffffffffffffffffffffffffffffff1916827bffffffffffffffffffffffffffffffffffffffffffffffffffffffff19161480612e0357507f5b5e139f000000000000000000000000000000000000000000000000000000007bffffffffffffffffffffffffffffffffffffffffffffffffffffffff1916827bffffffffffffffffffffffffffffffffffffffffffffffffffffffff1916145b80612e135750612e12826130df565b5b9050919050565b612e25838383613149565b505050565b505050565b6000612e508473ffffffffffffffffffffffffffffffffffffffff1661325d565b15612fb9578373ffffffffffffffffffffffffffffffffffffffff1663150b7a02612e796121cd565b8786866040518563ffffffff1660e01b8152600401612e9b94939291906144be565b602060405180830381600087803b158015612eb557600080fd5b505af1925050508015612ee657506040513d601f19601f82011682018060405250810190612ee39190613dcb565b60015b612f69573d8060008114612f16576040519150601f19603f3d011682016040523d82523d6000602084013e612f1b565b606091505b50600081511415612f61576040517f08c379a0000000000000000000000000000000000000000000000000000000008152600401612f58906145f2565b60405180910390fd5b805181602001fd5b63150b7a0260e01b7bffffffffffffffffffffffffffffffffffffffffffffffffffffffff1916817bffffffffffffffffffffffffffffffffffffffffffffffffffffffff191614915050612fbe565b600190505b949350505050565b606060405180602001604052806000815250905090565b6060612fe882612161565b613027576040517f08c379a000000000000000000000000000000000000000000000000000000000815260040161301e906147f2565b60405180910390fd5b6000613031612fc6565b90506000815111613051576040518060200160405280600081525061307c565b8061305b84613280565b60405160200161306c929190614448565b6040516020818303038152906040525b915050919050565b61308e838361342d565b61309b6000848484612e2f565b6130da576040517f08c379a00000000000000000000000000000000000000000000000000000000081526004016130d1906145f2565b60405180910390fd5b505050565b60007f01ffc9a7000000000000000000000000000000000000000000000000000000007bffffffffffffffffffffffffffffffffffffffffffffffffffffffff1916827bffffffffffffffffffffffffffffffffffffffffffffffffffffffff1916149050919050565b613154838383613607565b600073ffffffffffffffffffffffffffffffffffffffff168373ffffffffffffffffffffffffffffffffffffffff161415613197576131928161360c565b6131d6565b8173ffffffffffffffffffffffffffffffffffffffff168373ffffffffffffffffffffffffffffffffffffffff16146131d5576131d48382613655565b5b5b600073ffffffffffffffffffffffffffffffffffffffff168273ffffffffffffffffffffffffffffffffffffffff16141561321957613214816137c2565b613258565b8273ffffffffffffffffffffffffffffffffffffffff168273ffffffffffffffffffffffffffffffffffffffff1614613257576132568282613905565b5b5b505050565b6000808273ffffffffffffffffffffffffffffffffffffffff163b119050919050565b606060008214156132c8576040518060400160405280600181526020017f30000000000000000000000000000000000000000000000000000000000000008152509050613428565b600082905060005b600082146132fa5780806132e390614c49565b915050600a826132f39190614ab9565b91506132d0565b60008167ffffffffffffffff81111561333c577f4e487b7100000000000000000000000000000000000000000000000000000000600052604160045260246000fd5b6040519080825280601f01601f19166020018201604052801561336e5781602001600182028036833780820191505090505b5090505b60008514613421576001826133879190614aea565b9150600a856133969190614c92565b60306133a29190614a63565b60f81b8183815181106133de577f4e487b7100000000000000000000000000000000000000000000000000000000600052603260045260246000fd5b60200101907effffffffffffffffffffffffffffffffffffffffffffffffffffffffffffff1916908160001a905350600a8561341a9190614ab9565b9450613372565b8093505050505b919050565b600073ffffffffffffffffffffffffffffffffffffffff168273ffffffffffffffffffffffffffffffffffffffff16141561349d576040517f08c379a000000000000000000000000000000000000000000000000000000000815260040161349490614772565b60405180910390fd5b6134a681612161565b156134e6576040517f08c379a00000000000000000000000000000000000000000000000000000000081526004016134dd90614652565b60405180910390fd5b6134f260008383612e1a565b6001600360008473ffffffffffffffffffffffffffffffffffffffff1673ffffffffffffffffffffffffffffffffffffffff16815260200190815260200160002060008282546135429190614a63565b92505081905550816002600083815260200190815260200160002060006101000a81548173ffffffffffffffffffffffffffffffffffffffff021916908373ffffffffffffffffffffffffffffffffffffffff160217905550808273ffffffffffffffffffffffffffffffffffffffff16600073ffffffffffffffffffffffffffffffffffffffff167fddf252ad1be2c89b69c2b068fc378daa952ba7f163c4a11628f55a4df523b3ef60405160405180910390a461360360008383612e2a565b5050565b505050565b6008805490506009600083815260200190815260200160002081905550600881908060018154018082558091505060019003906000526020600020016000909190919091505550565b60006001613662846117e5565b61366c9190614aea565b9050600060076000848152602001908152602001600020549050818114613751576000600660008673ffffffffffffffffffffffffffffffffffffffff1673ffffffffffffffffffffffffffffffffffffffff168152602001908152602001600020600084815260200190815260200160002054905080600660008773ffffffffffffffffffffffffffffffffffffffff1673ffffffffffffffffffffffffffffffffffffffff168152602001908152602001600020600084815260200190815260200160002081905550816007600083815260200190815260200160002081905550505b6007600084815260200190815260200160002060009055600660008573ffffffffffffffffffffffffffffffffffffffff1673ffffffffffffffffffffffffffffffffffffffff16815260200190815260200160002060008381526020019081526020016000206000905550505050565b600060016008805490506137d69190614aea565b905060006009600084815260200190815260200160002054905060006008838154811061382c577f4e487b7100000000000000000000000000000000000000000000000000000000600052603260045260246000fd5b906000526020600020015490508060088381548110613874577f4e487b7100000000000000000000000000000000000000000000000000000000600052603260045260246000fd5b9060005260206000200181905550816009600083815260200190815260200160002081905550600960008581526020019081526020016000206000905560088054806138e9577f4e487b7100000000000000000000000000000000000000000000000000000000600052603160045260246000fd5b6001900381819060005260206000200160009055905550505050565b6000613910836117e5565b905081600660008573ffffffffffffffffffffffffffffffffffffffff1673ffffffffffffffffffffffffffffffffffffffff168152602001908152602001600020600083815260200190815260200160002081905550806007600084815260200190815260200160002081905550505050565b6040518060a001604052806000815260200160008152602001600015158152602001600073ffffffffffffffffffffffffffffffffffffffff168152602001600073ffffffffffffffffffffffffffffffffffffffff1681525090565b8280546139ed90614be6565b90600052602060002090601f016020900481019282613a0f5760008555613a56565b82601f10613a2857805160ff1916838001178555613a56565b82800160010185558215613a56579182015b82811115613a55578251825591602001919060010190613a3a565b5b509050613a639190613a67565b5090565b5b80821115613a80576000816000905550600101613a68565b5090565b6000613a97613a9284614985565b614960565b905082815260208101848484011115613aaf57600080fd5b613aba848285614ba4565b509392505050565b6000613ad5613ad0846149b6565b614960565b905082815260208101848484011115613aed57600080fd5b613af8848285614ba4565b509392505050565b600081359050613b0f8161548f565b92915050565b600081359050613b24816154a6565b92915050565b600081519050613b39816154a6565b92915050565b600081359050613b4e816154bd565b92915050565b600081519050613b63816154bd565b92915050565b600082601f830112613b7a57600080fd5b8135613b8a848260208601613a84565b91505092915050565b600082601f830112613ba457600080fd5b8135613bb4848260208601613ac2565b91505092915050565b600081359050613bcc816154d4565b92915050565b600060208284031215613be457600080fd5b6000613bf284828501613b00565b91505092915050565b60008060408385031215613c0e57600080fd5b6000613c1c85828601613b00565b9250506020613c2d85828601613b00565b9150509250929050565b600080600060608486031215613c4c57600080fd5b6000613c5a86828701613b00565b9350506020613c6b86828701613b00565b9250506040613c7c86828701613bbd565b9150509250925092565b60008060008060808587031215613c9c57600080fd5b6000613caa87828801613b00565b9450506020613cbb87828801613b00565b9350506040613ccc87828801613bbd565b925050606085013567ffffffffffffffff811115613ce957600080fd5b613cf587828801613b69565b91505092959194509250565b60008060408385031215613d1457600080fd5b6000613d2285828601613b00565b9250506020613d3385828601613b15565b9150509250929050565b60008060408385031215613d5057600080fd5b6000613d5e85828601613b00565b9250506020613d6f85828601613bbd565b9150509250929050565b600060208284031215613d8b57600080fd5b6000613d9984828501613b2a565b91505092915050565b600060208284031215613db457600080fd5b6000613dc284828501613b3f565b91505092915050565b600060208284031215613ddd57600080fd5b6000613deb84828501613b54565b91505092915050565b60008060408385031215613e0757600080fd5b600083013567ffffffffffffffff811115613e2157600080fd5b613e2d85828601613b93565b9250506020613e3e85828601613bbd565b9150509250929050565b600060208284031215613e5a57600080fd5b6000613e6884828501613bbd565b91505092915050565b60008060408385031215613e8457600080fd5b6000613e9285828601613bbd565b9250506020613ea385828601613bbd565b9150509250929050565b6000613eb983836143c2565b60a08301905092915050565b613ece81614b30565b82525050565b613edd81614b30565b82525050565b613eec81614b1e565b82525050565b6000613efd826149f7565b613f078185614a25565b9350613f12836149e7565b8060005b83811015613f43578151613f2a8882613ead565b9750613f3583614a18565b925050600181019050613f16565b5085935050505092915050565b613f5981614b42565b82525050565b613f6881614b42565b82525050565b6000613f7982614a02565b613f838185614a36565b9350613f93818560208601614bb3565b613f9c81614d7f565b840191505092915050565b6000613fb282614a0d565b613fbc8185614a47565b9350613fcc818560208601614bb3565b613fd581614d7f565b840191505092915050565b6000613feb82614a0d565b613ff58185614a58565b9350614005818560208601614bb3565b80840191505092915050565b600061401e601c83614a47565b915061402982614d90565b602082019050919050565b6000614041602b83614a47565b915061404c82614db9565b604082019050919050565b6000614064601b83614a47565b915061406f82614e08565b602082019050919050565b6000614087603283614a47565b915061409282614e31565b604082019050919050565b60006140aa602683614a47565b91506140b582614e80565b604082019050919050565b60006140cd602583614a47565b91506140d882614ecf565b604082019050919050565b60006140f0601c83614a47565b91506140fb82614f1e565b602082019050919050565b6000614113602483614a47565b915061411e82614f47565b604082019050919050565b6000614136601983614a47565b915061414182614f96565b602082019050919050565b6000614159602c83614a47565b915061416482614fbf565b604082019050919050565b600061417c603883614a47565b91506141878261500e565b604082019050919050565b600061419f602a83614a47565b91506141aa8261505d565b604082019050919050565b60006141c2602983614a47565b91506141cd826150ac565b604082019050919050565b60006141e5602e83614a47565b91506141f0826150fb565b604082019050919050565b6000614208602483614a47565b91506142138261514a565b604082019050919050565b600061422b602083614a47565b915061423682615199565b602082019050919050565b600061424e603183614a47565b9150614259826151c2565b604082019050919050565b6000614271602c83614a47565b915061427c82615211565b604082019050919050565b6000614294602083614a47565b915061429f82615260565b602082019050919050565b60006142b7602f83614a47565b91506142c282615289565b604082019050919050565b60006142da602183614a47565b91506142e5826152d8565b604082019050919050565b60006142fd602183614a47565b915061430882615327565b604082019050919050565b6000614320601083614a47565b915061432b82615376565b602082019050919050565b6000614343603183614a47565b915061434e8261539f565b604082019050919050565b6000614366602c83614a47565b9150614371826153ee565b604082019050919050565b6000614389601f83614a47565b91506143948261543d565b602082019050919050565b60006143ac601c83614a47565b91506143b782615466565b602082019050919050565b60a0820160008201516143d8600085018261442a565b5060208201516143eb602085018261442a565b5060408201516143fe6040850182613f50565b5060608201516144116060850182613ec5565b5060808201516144246080850182613ec5565b50505050565b61443381614b9a565b82525050565b61444281614b9a565b82525050565b60006144548285613fe0565b91506144608284613fe0565b91508190509392505050565b60006020820190506144816000830184613ee3565b92915050565b600060608201905061449c6000830186613ee3565b6144a96020830185613ee3565b6144b66040830184614439565b949350505050565b60006080820190506144d36000830187613ee3565b6144e06020830186613ee3565b6144ed6040830185614439565b81810360608301526144ff8184613f6e565b905095945050505050565b600060408201905061451f6000830185613ee3565b61452c6020830184614439565b9392505050565b6000602082019050818103600083015261454d8184613ef2565b905092915050565b600060208201905061456a6000830184613f5f565b92915050565b6000602082019050818103600083015261458a8184613fa7565b905092915050565b600060208201905081810360008301526145ab81614011565b9050919050565b600060208201905081810360008301526145cb81614034565b9050919050565b600060208201905081810360008301526145eb81614057565b9050919050565b6000602082019050818103600083015261460b8161407a565b9050919050565b6000602082019050818103600083015261462b8161409d565b9050919050565b6000602082019050818103600083015261464b816140c0565b9050919050565b6000602082019050818103600083015261466b816140e3565b9050919050565b6000602082019050818103600083015261468b81614106565b9050919050565b600060208201905081810360008301526146ab81614129565b9050919050565b600060208201905081810360008301526146cb8161414c565b9050919050565b600060208201905081810360008301526146eb8161416f565b9050919050565b6000602082019050818103600083015261470b81614192565b9050919050565b6000602082019050818103600083015261472b816141b5565b9050919050565b6000602082019050818103600083015261474b816141d8565b9050919050565b6000602082019050818103600083015261476b816141fb565b9050919050565b6000602082019050818103600083015261478b8161421e565b9050919050565b600060208201905081810360008301526147ab81614241565b9050919050565b600060208201905081810360008301526147cb81614264565b9050919050565b600060208201905081810360008301526147eb81614287565b9050919050565b6000602082019050818103600083015261480b816142aa565b9050919050565b6000602082019050818103600083015261482b816142cd565b9050919050565b6000602082019050818103600083015261484b816142f0565b9050919050565b6000602082019050818103600083015261486b81614313565b9050919050565b6000602082019050818103600083015261488b81614336565b9050919050565b600060208201905081810360008301526148ab81614359565b9050919050565b600060208201905081810360008301526148cb8161437c565b9050919050565b600060208201905081810360008301526148eb8161439f565b9050919050565b60006020820190506149076000830184614439565b92915050565b600060a0820190506149226000830188614439565b61492f6020830187614439565b61493c6040830186613f5f565b6149496060830185613ed4565b6149566080830184613ed4565b9695505050505050565b600061496a61497b565b90506149768282614c18565b919050565b6000604051905090565b600067ffffffffffffffff8211156149a05761499f614d50565b5b6149a982614d7f565b9050602081019050919050565b600067ffffffffffffffff8211156149d1576149d0614d50565b5b6149da82614d7f565b9050602081019050919050565b6000819050602082019050919050565b600081519050919050565b600081519050919050565b600081519050919050565b6000602082019050919050565b600082825260208201905092915050565b600082825260208201905092915050565b600082825260208201905092915050565b600081905092915050565b6000614a6e82614b9a565b9150614a7983614b9a565b9250827fffffffffffffffffffffffffffffffffffffffffffffffffffffffffffffffff03821115614aae57614aad614cc3565b5b828201905092915050565b6000614ac482614b9a565b9150614acf83614b9a565b925082614adf57614ade614cf2565b5b828204905092915050565b6000614af582614b9a565b9150614b0083614b9a565b925082821015614b1357614b12614cc3565b5b828203905092915050565b6000614b2982614b7a565b9050919050565b6000614b3b82614b7a565b9050919050565b60008115159050919050565b60007fffffffff0000000000000000000000000000000000000000000000000000000082169050919050565b600073ffffffffffffffffffffffffffffffffffffffff82169050919050565b6000819050919050565b82818337600083830152505050565b60005b83811015614bd1578082015181840152602081019050614bb6565b83811115614be0576000848401525b50505050565b60006002820490506001821680614bfe57607f821691505b60208210811415614c1257614c11614d21565b5b50919050565b614c2182614d7f565b810181811067ffffffffffffffff82111715614c4057614c3f614d50565b5b80604052505050565b6000614c5482614b9a565b91507fffffffffffffffffffffffffffffffffffffffffffffffffffffffffffffffff821415614c8757614c86614cc3565b5b600182019050919050565b6000614c9d82614b9a565b9150614ca883614b9a565b925082614cb857614cb7614cf2565b5b828206905092915050565b7f4e487b7100000000000000000000000000000000000000000000000000000000600052601160045260246000fd5b7f4e487b7100000000000000000000000000000000000000000000000000000000600052601260045260246000fd5b7f4e487b7100000000000000000000000000000000000000000000000000000000600052602260045260246000fd5b7f4e487b7100000000000000000000000000000000000000000000000000000000600052604160045260246000fd5b6000601f19601f8301169050919050565b7f4c697374696e6720466565205472616e73666572206661696c65642e00000000600082015250565b7f455243373231456e756d657261626c653a206f776e657220696e646578206f7560008201527f74206f6620626f756e6473000000000000000000000000000000000000000000602082015250565b7f436f756e7465723a2064656372656d656e74206f766572666c6f770000000000600082015250565b7f4552433732313a207472616e7366657220746f206e6f6e20455243373231526560008201527f63656976657220696d706c656d656e7465720000000000000000000000000000602082015250565b7f4f776e61626c653a206e6577206f776e657220697320746865207a65726f206160008201527f6464726573730000000000000000000000000000000000000000000000000000602082015250565b7f4552433732313a207472616e736665722066726f6d20696e636f72726563742060008201527f6f776e6572000000000000000000000000000000000000000000000000000000602082015250565b7f4552433732313a20746f6b656e20616c7265616479206d696e74656400000000600082015250565b7f4552433732313a207472616e7366657220746f20746865207a65726f2061646460008201527f7265737300000000000000000000000000000000000000000000000000000000602082015250565b7f4552433732313a20617070726f766520746f2063616c6c657200000000000000600082015250565b7f4552433732313a206f70657261746f7220717565727920666f72206e6f6e657860008201527f697374656e7420746f6b656e0000000000000000000000000000000000000000602082015250565b7f4552433732313a20617070726f76652063616c6c6572206973206e6f74206f7760008201527f6e6572206e6f7220617070726f76656420666f7220616c6c0000000000000000602082015250565b7f4552433732313a2062616c616e636520717565727920666f7220746865207a6560008201527f726f206164647265737300000000000000000000000000000000000000000000602082015250565b7f4552433732313a206f776e657220717565727920666f72206e6f6e657869737460008201527f656e7420746f6b656e0000000000000000000000000000000000000000000000602082015250565b7f45524337323155524953746f726167653a2055524920736574206f66206e6f6e60008201527f6578697374656e7420746f6b656e000000000000000000000000000000000000602082015250565b7f4d61726b6574706c616365206572726f72203a2050757263686173652066616960008201527f6c65642e00000000000000000000000000000000000000000000000000000000602082015250565b7f4552433732313a206d696e7420746f20746865207a65726f2061646472657373600082015250565b7f45524337323155524953746f726167653a2055524920717565727920666f722060008201527f6e6f6e6578697374656e7420746f6b656e000000000000000000000000000000602082015250565b7f4552433732313a20617070726f76656420717565727920666f72206e6f6e657860008201527f697374656e7420746f6b656e0000000000000000000000000000000000000000602082015250565b7f4f776e61626c653a2063616c6c6572206973206e6f7420746865206f776e6572600082015250565b7f4552433732314d657461646174613a2055524920717565727920666f72206e6f60008201527f6e6578697374656e7420746f6b656e0000000000000000000000000000000000602082015250565b7f7468697320546f6b656e206973206e6f74206c697374656420666f722073616c60008201527f6500000000000000000000000000000000000000000000000000000000000000602082015250565b7f4552433732313a20617070726f76616c20746f2063757272656e74206f776e6560008201527f7200000000000000000000000000000000000000000000000000000000000000602082015250565b7f5472616e73666572206661696c65642e00000000000000000000000000000000600082015250565b7f4552433732313a207472616e736665722063616c6c6572206973206e6f74206f60008201527f776e6572206e6f7220617070726f766564000000000000000000000000000000602082015250565b7f455243373231456e756d657261626c653a20676c6f62616c20696e646578206f60008201527f7574206f6620626f756e64730000000000000000000000000000000000000000602082015250565b7f54484953204e465420444f4553204e4f542042454c4f4e4720544f20594f5500600082015250565b7f5072696365206d7573742062652067726561746572207468616e203000000000600082015250565b61549881614b1e565b81146154a357600080fd5b50565b6154af81614b42565b81146154ba57600080fd5b50565b6154c681614b4e565b81146154d157600080fd5b50565b6154dd81614b9a565b81146154e857600080fd5b5056fea2646970667358221220b8eca06a321373e00f3cb4dd0f4cdf7b3395eca0247eedf668848f46127ce81b64736f6c63430008040033",
  "linkReferences": {},
  "deployedLinkReferences": {}
}